:020000040000FA
:0400000071EF0DF09F
:10080000002056616C6F7220696E76616C69646F4E
:10081000002074656D70313A002074656D70323A55
:10082000002074656D70333A000003C007F004C007
:1008300008F074EF06F08196818481808182030E36
:10084000066E8A0E056E560EE82EFED7052EFCD7D4
:10085000062EFAD781B82FEF04F031EF04F050EFF5
:1008600004F003C001F004C002F030EC0DF00150C0
:1008700011EC0DF0310EF2EC0CF0034A042A030ED9
:10088000066E8A0E056E560EE82EFED7052EFCD794
:10089000062EFAD7000E046E010E036E82EF06F0EC
:1008A00081BA55EF04F057EF04F076EF04F003C07F
:1008B00001F004C002F030EC0DF0015011EC0DF02D
:1008C000340EF2EC0CF0034A042A030E066E8A0E74
:1008D000056E560EE82EFED7052EFCD7062EFAD74B
:1008E000000E046E040E036E82EF06F081BC7BEFF7
:1008F00004F07DEF04F09CEF04F003C001F004C0AD
:1009000002F030EC0DF0015011EC0DF0370EF2EC6E
:100910000CF0034A042A030E066E8A0E056E560E6C
:10092000E82EFED7052EFCD7062EFAD7000E046E51
:10093000070E036E82EF06F081BEA1EF04F0A3EF75
:1009400004F0C2EF04F003C001F004C002F030EC88
:100950000DF0015011EC0DF0300EF2EC0CF0034AEA
:10096000042A030E066E8A0E056E560EE82EFED77A
:10097000052EFCD7062EFAD7000E046E000E036E6D
:1009800082EF06F0030E066E8A0E056E560EE82EF6
:10099000FED7052EFCD7062EFAD78186819481805A
:1009A0008182030E066E8A0E056E560EE82EFED765
:1009B000052EFCD7062EFAD781B8E1EF04F0E3EF5D
:1009C00004F002EF05F003C001F004C002F030ECC7
:1009D0000DF0015011EC0DF0320EF2EC0CF0034A68
:1009E000042A030E066E8A0E056E560EE82EFED7FA
:1009F000052EFCD7062EFAD7000E046E020E036EEB
:100A000082EF06F081BA07EF05F009EF05F028EF55
:100A100005F003C001F004C002F030EC0DF001500D
:100A200011EC0DF0350EF2EC0CF0034A042A030E23
:100A3000066E8A0E056E560EE82EFED7052EFCD7E2
:100A4000062EFAD7000E046E050E036E82EF06F036
:100A500081BC2DEF05F02FEF05F04EEF05F003C040
:100A600001F004C002F030EC0DF0015011EC0DF07B
:100A7000380EF2EC0CF0034A042A030E066E8A0EBE
:100A8000056E560EE82EFED7052EFCD7062EFAD799
:100A9000000E046E080E036E82EF06F081BE53EF67
:100AA00005F055EF05F065EF05F003C001F004C057
:100AB00002F030EC0DF0015011EC0DF0300EF2ECC4
:100AC0000CF0034A042ABCEF04F0030E066E8A0EF3
:100AD000056E560EE82EFED7052EFCD7062EFAD749
:100AE0008186818481928180030E066E8A0E056E56
:100AF000560EE82EFED7052EFCD7062EFAD781B863
:100B000084EF05F086EF05F0A5EF05F003C001F0D6
:100B100004C002F030EC0DF0015011EC0DF0330E7A
:100B2000F2EC0CF0034A042A030E066E8A0E056EE0
:100B3000560EE82EFED7052EFCD7062EFAD7000E4D
:100B4000046E030E036E82EF06F081BAAAEF05F081
:100B5000ACEF05F0CBEF05F003C001F004C002F0EC
:100B600030EC0DF0015011EC0DF0360EF2EC0CF003
:100B7000034A042A030E066E8A0E056E560EE82EF0
:100B8000FED7052EFCD7062EFAD7000E046E060EF1
:100B9000036E82EF06F081BCD0EF05F0D2EF05F0D6
:100BA000F1EF05F003C001F004C002F030EC0DF0ED
:100BB000015011EC0DF0390EF2EC0CF0034A042A4E
:100BC000030E066E8A0E056E560EE82EFED7052E13
:100BD000FCD7062EFAD7000E046E090E036E82EFC4
:100BE00006F081BEF6EF05F0F8EF05F006EF06F02F
:100BF00003C001F004C002F030EC0DF0015011EC24
:100C00000DF0300EF2EC0CF0AFEF04F0030E066EB8
:100C10008A0E056E560EE82EFED7052EFCD7062E40
:100C2000FAD78186818481828190030E066E8A0EB6
:100C3000056E560EE82EFED7052EFCD7062EFAD7E7
:100C400081B825EF06F027EF06F035EF06F003C078
:100C500001F004C002F030EC0DF0015011EC0DF089
:100C6000300EF2EC0CF0AFEF04F081BA3AEF06F080
:100C70003CEF06F04AEF06F003C001F004C002F0BA
:100C800030EC0DF0015011EC0DF0300EF2EC0CF0E8
:100C9000AFEF04F081BC4FEF06F051EF06F05FEFCD
:100CA00006F003C001F004C002F030EC0DF001507A
:100CB00011EC0DF0300EF2EC0CF0AFEF04F081BE51
:100CC00064EF06F066EF06F074EF06F003C001F083
:100CD00004C002F030EC0DF0015011EC0DF0300EBC
:100CE000F2EC0CF0AFEF04F00350071809E10450E8
:100CF0000818D8B47EEF06F080EF06F01BEF04F082
:100D0000BCEF04F012009280959095929594839098
:100D100083928394949493969394939093928186E0
:100D200081889388938A938C938E959095929594CD
:100D3000959696909692000E356E000E346E000ECB
:100D4000376E000E366E000E396E000E386E000ED5
:100D50003D6E000E3C6E000E416E000E406E000EA9
:100D60003F6E000E3E6E0D0EC16E010EC26E950EF0
:100D7000C06E280E13EC0CF023EF07F0800E11EC80
:100D80000DF0110E026E080E036E8AEC0CF0000ED0
:100D9000046E000E036E15EC04F003C042F004C0B4
:100DA00043F0000E046E010E036E15EC04F003C058
:100DB00044F004C045F042C001F043C002F0000E10
:100DC000046E0A0E036E4DEC0DF0445001243C6E8F
:100DD000455002203D6E330E136E330E146E030E1B
:100DE000156E400E166E3CC001F03DC002F0000EC4
:100DF00002BEFF0E036E046E010EB6EC0AF001C0D7
:100E00000FF002C010F003C011F004C012F0A1EC0A
:100E100008F00FC028F010C029F011C02AF012C04D
:100E20002BF090EC0BF028C03CF029C03DF0000EF8
:100E3000436E000E426E000E456E000E446E000EB4
:100E4000356E010E346E34503510D8B42AEF07F0E9
:100E50002CEF07F0BEEF06F0BFEF07F0010E11EC2C
:100E60000DF0800E11EC0DF0190E026E080E036EDF
:100E70008AEC0CF0000E046E000E036E15EC04F00C
:100E800003C042F004C043F0000E046E010E036E76
:100E900015EC04F003C044F004C045F042C001F07A
:100EA00043C002F0000E046E0A0E036E4DEC0DF00E
:100EB00044500124406E45500220416E330E136EA3
:100EC000330E146E030E156E400E166E40C001F008
:100ED00041C002F0000E02BEFF0E036E046E010E52
:100EE000B6EC0AF001C00FF002C010F003C011F020
:100EF00004C012F0A1EC08F00FC028F010C029F0D7
:100F000011C02AF012C02BF090EC0BF028C040F07A
:100F100029C041F0000E436E000E426E000E456E79
:100F2000000E446E40503C5C3D50800A326E415091
:100F3000800A3258D8A09FEF07F0A1EF07F0BBEF6F
:100F400007F0010E11EC0DF0800E11EC0DF0010E0A
:100F5000026E080E036E8AEC0CF01A0E336E5E0EF3
:100F6000326E6E0EE82EFED7322EFCD7332EFAD715
:100F700000D0BFEF07F0000E376E010E366E365010
:100F80003710D8B4C6EF07F0C8EF07F02EEF07F020
:100F90005BEF08F0010E11EC0DF0800E11EC0DF07E
:100FA000210E026E080E036E8AEC0CF0000E046E29
:100FB000000E036E15EC04F003C042F004C043F0D1
:100FC000000E046E010E036E15EC04F003C044F035
:100FD00004C045F042C001F043C002F0000E046EB0
:100FE0000A0E036E4DEC0DF0445001243E6E455048
:100FF00002203F6E330E136E330E146E030E156E09
:10100000400E166E3EC001F03FC002F0000E02BE60
:10101000FF0E036E046E010EB6EC0AF001C00FF075
:1010200002C010F003C011F004C012F0A1EC08F0EF
:101030000FC028F010C029F011C02AF012C02BF008
:1010400090EC0BF028C03EF029C03FF0000E436E3C
:10105000000E426E000E456E000E446E3E50405C27
:101060004150800A326E3F50800A3258D8A03BEF80
:1010700008F03DEF08F057EF08F0010E11EC0DF00D
:10108000800E11EC0DF0010E026E080E036E8AEC5C
:101090000CF01A0E336E5E0E326E6E0EE82EFED718
:1010A000322EFCD7332EFAD700D05BEF08F0000EBB
:1010B000396E010E386E38503910D8B462EF08F02E
:1010C00064EF08F0CAEF07F0C282C450336E326A90
:1010D000C35032243A6E000E33203B6E3C503A5CD3
:1010E0003D503B58D8A077EF08F079EF08F07DEF3E
:1010F00008F0838082847FEF08F0839082944050D0
:101100003A5C41503B58D8A088EF08F08AEF08F0CD
:101110008DEF08F083828EEF08F083923E503A5CA8
:101120003F503B58D8A097EF08F099EF08F09CEF9C
:1011300008F0838423EF07F0839423EF07F000EF98
:1011400000F01250800B1B6E12501224216E11AE53
:10115000ACEF08F0AEEF08F0AFEF08F021802150BF
:10116000D8B4B5EF08F0B7EF08F0CAEF08F02128BF
:10117000D8A4BDEF08F0BFEF08F0C7EF08F0000EED
:101180000F6E000E106E000E116E000E126E118E9C
:10119000D2EF08F0000E0F6E000E106E000E116EF2
:1011A000000E126E1650800B1B1A16501624206E5D
:1011B00015AEDDEF08F0DFEF08F0E0EF08F020807B
:1011C0002050D8B4E6EF08F0E8EF08F0FBEF08F0A5
:1011D0002028D8A4EEEF08F0F0EF08F0F8EF08F0C0
:1011E000000E136E000E146E000E156E000E166EBD
:1011F000158E03EF09F0000E136E000E146E000E34
:10120000156E000E166E2050D8B409EF09F00BEFE2
:1012100009F013EF09F02150D8A411EF09F013EFF2
:1012200009F01DEF09F0000E0F6E000E106E000E9B
:10123000116E000E126EB5EF0AF015500F02F3CFCB
:1012400026F0F4CF27F026501C6E1D6A1E6A1F6A16
:101250002750226E236A246A256A14501002F3CFA5
:1012600026F0F4CF27F026501C26000E1D221E2249
:101270001F2227502226000E23222422252213502B
:101280001102F3CF26F0F4CF27F026501C26000ED3
:101290001D221E221F2227502226000E2322242236
:1012A00025221EC01FF01DC01EF01CC01DF01C6AB0
:1012B00013501002F3CF26F0F4CF27F026501C264F
:1012C00027501D22000E1E22000E1F2214500F0256
:1012D000F3CF26F0F4CF27F026501C2627501D22EE
:1012E000000E1E22000E1F221EC01FF01DC01EF089
:1012F0001CC01DF01C6A13500F02F3CF26F0F4CF70
:1013000027F026501C2627501D22000E1E22000EFC
:101310001F2215501002F3CF26F0F4CF27F02650ED
:10132000222627502322000E2422000E25221450AC
:101330001102F3CF26F0F4CF27F0265022262750B3
:101340002322000E2422000E252215501102F3CF75
:1013500026F0F4CF27F02650176E2750186E196A22
:101360001A6A19C01AF018C019F017C018F0176AD5
:101370001750222618502322195024221A502522B1
:101380001CC017F01DC018F01EC019F01FC01AF0C5
:10139000190ED0EF09F0D8901A32193218321732DC
:1013A000E82ECBEF09F017502226185023221950AF
:1013B00024221A5025221EC01FF01DC01EF01CC082
:1013C0001DF01C6A205021C017F0186A1726000E65
:1013D0001822820E1724266EFF0E1820276E06EFA5
:1013E0000AF0D89022362336243625361FAEFBEF7E
:1013F00009F0FDEF09F0FEEF09F02280D8901C36CD
:101400001D361E361F362606D8A0270624AE0BEF43
:101410000AF00DEF0AF0F1EF09F0000E206E1FAE9A
:1014200014EF0AF016EF0AF03AEF0AF0FF0E1C1460
:10143000176EFF0E1D14186EFF0E1E14196E7F0E10
:101440001F141A6E1750181019101A10D8B42BEF59
:101450000AF02DEF0AF031EF0AF0010E206E3AEF9C
:101460000AF022A036EF0AF038EF0AF03AEF0AF05D
:101470002DEF0AF02050D8B440EF0AF042EF0AF006
:1014800066EF0AF0010E2226000E232224222522D6
:1014900025A04DEF0AF04FEF0AF066EF0AF022C0E8
:1014A00017F023C018F024C019F025C01AF01A3420
:1014B0001A3219321832173217C022F018C023F02E
:1014C00019C024F01AC025F0264A272A27BE71EF3A
:1014D0000AF0275008E12628D8A071EF0AF073EF30
:1014E0000AF07DEF0AF0000E226E000E236E800ED1
:1014F000246E7F0E256EABEF0AF027BE8AEF0AF04E
:10150000275006E12604D8B088EF0AF08AEF0AF0E7
:1015100096EF0AF0000E226E000E236E000E246E6F
:10152000000E256E000E1B6EABEF0AF026C021F0F8
:10153000FF0E2216FF0E23167F0E2416000E251610
:1015400021A0A5EF0AF0A7EF0AF0A8EF0AF0248E79
:10155000D8902130256E1B50251222C00FF023C0D9
:1015600010F024C011F025C012F01200096E0950CD
:10157000D8B4BDEF0AF0BFEF0AF0E1EF0AF004BE05
:10158000C6EF0AF0C4EF0AF0E1EF0AF001C005F07F
:1015900002C006F003C007F004C008F0051E061ED6
:1015A000071E081E052A000E06220722082205C073
:1015B0000BF006C00CF007C00DF008C00EF0E9EF0C
:1015C0000AF001C00BF002C00CF003C00DF004C023
:1015D0000EF00150021003100410D8A4F2EF0AF02C
:1015E000F4EF0AF0FEEF0AF0000E016E000E026E3C
:1015F000000E036E000E046E8FEF0BF0960E0A6E57
:1016000008EF0BF00A2AD8900E320D320C320B3252
:10161000000E0B14056E000E0C14066E000E0D1459
:10162000076EFE0E0E14086E055006100710081007
:10163000D8A41DEF0BF01FEF0BF002EF0BF02DEF16
:101640000BF00A2A010E0B26000E0C220D220E2290
:10165000D8900E320D320C320B32000E0B14056E88
:10166000000E0C14066E000E0D14076EFF0E0E1405
:10167000086E0550061007100810D8A442EF0BF0B2
:1016800044EF0BF021EF0BF04CEF0BF00A06D89073
:101690000B360C360D360E360DBE51EF0BF053EFF8
:1016A0000BF05BEF0BF0020E0A6059EF0BF05BEFF3
:1016B0000BF046EF0BF00AB060EF0BF062EF0BF0AF
:1016C00063EF0BF00D9ED8900A320AC005F0066A4F
:1016D000076A086A05C008F0076A066A056A0550C5
:1016E0000B1206500C1207500D1208500E12095022
:1016F000D8B47DEF0BF07FEF0BF087EF0BF004BE5B
:1017000086EF0BF084EF0BF087EF0BF00E8E0BC023
:1017100001F00CC002F00DC003F00EC004F0120086
:101720002A342B34316E3150D8A499EF0BF09BEF53
:101730000BF0A5EF0BF0000E286E000E296E000EC8
:101740002A6E000E2B6E12EF0CF028C02CF029C070
:101750002DF02AC02EF02BC02FF0200EB5EF0BF08D
:10176000D8902F322E322D322C32E82EB0EF0BF0E3
:101770002C50306E2A8EFF0E2816FF0E2916FF0EF3
:101780002A16000E2B16960E315E31BECCEF0BF0F2
:10179000CAEF0BF0E2EF0BF03150800A970FD8B090
:1017A000D4EF0BF0D6EF0BF0D8EF0BF09BEF0BF074
:1017B000D8902B322A3229322832313ED8EF0BF022
:1017C000FAEF0BF01F0E3164E8EF0BF0EAEF0BF0CD
:1017D000F2EF0BF09BEF0BF0D890283629362A3623
:1017E0002B3631063150D8A4F8EF0BF0FAEF0BF09E
:1017F000ECEF0BF03050D8B400EF0CF002EF0CF02F
:101800000AEF0CF02B1E2A1E291E286C000E29221E
:101810002A222B2228C028F029C029F02AC02AF029
:101820002BC02BF01200026E0F0E83160F0E9516B2
:101830009694969096928D948D908D9269EC0DF081
:10184000300E11EC0DF060EC0DF060EC0DF0300E90
:1018500011EC0DF060EC0DF060EC0DF0320E11ECBF
:101860000DF0AFEC0CF00009D8A439EF0CF03BEF11
:101870000CF031EF0CF0AFEC0CF00009D8A443EF02
:101880000CF045EF0CF03BEF0CF0025011EC0DF0BA
:10189000AFEC0CF00009D8A450EF0CF052EF0CF0B4
:1018A00048EF0CF0080E11EC0DF0AFEC0CF0000955
:1018B000D8A45DEF0CF05FEF0CF055EF0CF00F0EBD
:1018C00011EC0DF0AFEC0CF00009D8A46AEF0CF0AD
:1018D0006CEF0CF062EF0CF0010E11EC0DF0AFECC0
:1018E0000CF00009D8A477EF0CF079EF0CF06FEF53
:1018F0000CF0040E11EC0DF0AFEC0CF00009D8A4C4
:1019000084EF0CF086EF0CF07CEF0CF0800ED2EC44
:101910000CF01200A0EF0CF0AFEC0CF00009D8A412
:1019200094EF0CF096EF0CF08CEF0CF002C0F6FF89
:1019300003C0F7FF0800F550F2EC0CF0024A032A4E
:1019400002C0F6FF03C0F7FF0800F5500009D8A455
:10195000ACEF0CF0AEEF0CF08CEF0CF012008D84BD
:101960008D9078EC0DF08D8278EC0DF083AEBBEFAE
:101970000CF0BDEF0CF0C8EF0CF08D9278EC0DF090
:101980008D8278EC0DF08D928D94010ED1EF0CF0DC
:101990008D9278EC0DF08D8278EC0DF08D928D9417
:1019A000000E1200016E0F0E95160F0E83160150D9
:1019B0008009F00B83128D948D9078EC0DF08D8260
:1019C00078EC0DF08D920F0E83160138F00BF00BB2
:1019D000831278EC0DF08D8278EC0DF08D92F00E84
:1019E00095121200016E0F0E95160F0E8316015000
:1019F000F00B83128D808D9478EC0DF08D8278EC55
:101A00000DF08D920F0E83160138F00BF00B831240
:101A100078EC0DF08D8278EC0DF08D92F00E951231
:101A20001200016E0F0E95160F0E83160150F00B6B
:101A300083128D948D9078EC0DF08D8278EC0DF002
:101A40008D920F0E83160138F00BF00B831278EC99
:101A50000DF08D8278EC0DF08D92F00E9512120043
:101A600001500210D8A437EF0DF039EF0DF03FEF21
:101A70000DF0000E026E870E016E4CEF0DF00104AA
:101A80000210D8A446EF0DF048EF0DF04CEF0DF02A
:101A9000000E026E880E016E120001500302F3CF99
:101AA00005F0F4CF06F001500402F3500626025070
:101AB0000302F350062605C001F006C002F0120032
:101AC000210E016E760EE82EFED7012EFCD700D037
:101AD0001200620E016E660EE82EFED7012EFCD7B4
:101AE0001200000EF86E080EF76E000183EF06F08C
:0A1AF000210EE82EFED700F01200D0
:020000040020DA
:08000000FFFFFFFFFFFFFFFF00
:020000040030CA
:0E000000000C191EFF0080FF0FC00FE00F4024
:00000001FF
